{
  "_format": "hh3-artifact-1",
  "contractName": "VeterinaryHealthEvents",
  "sourceName": "contracts/VeterinaryHealthEvents.sol",
  "abi": [
    {
      "inputs": [],
      "stateMutability": "nonpayable",
      "type": "constructor"
    },
    {
      "anonymous": false,
      "inputs": [
        {
          "indexed": true,
          "internalType": "bytes32",
          "name": "eventHash",
          "type": "bytes32"
        },
        {
          "indexed": true,
          "internalType": "address",
          "name": "ownerAddr",
          "type": "address"
        },
        {
          "indexed": false,
          "internalType": "uint256",
          "name": "timestamp",
          "type": "uint256"
        },
        {
          "indexed": false,
          "internalType": "string",
          "name": "ipfsUri",
          "type": "string"
        }
      ],
      "name": "HealthEventRecorded",
      "type": "event"
    },
    {
      "anonymous": false,
      "inputs": [
        {
          "indexed": true,
          "internalType": "bytes32",
          "name": "eventHash",
          "type": "bytes32"
        },
        {
          "indexed": true,
          "internalType": "address",
          "name": "updatedBy",
          "type": "address"
        },
        {
          "indexed": false,
          "internalType": "uint256",
          "name": "updatedAt",
          "type": "uint256"
        },
        {
          "indexed": false,
          "internalType": "string",
          "name": "ipfsUri",
          "type": "string"
        }
      ],
      "name": "HealthEventUpdated",
      "type": "event"
    },
    {
      "anonymous": false,
      "inputs": [
        {
          "indexed": true,
          "internalType": "address",
          "name": "account",
          "type": "address"
        },
        {
          "indexed": false,
          "internalType": "bool",
          "name": "canRead",
          "type": "bool"
        },
        {
          "indexed": false,
          "internalType": "bool",
          "name": "canWrite",
          "type": "bool"
        }
      ],
      "name": "PermissionsUpdated",
      "type": "event"
    },
    {
      "inputs": [
        {
          "internalType": "bytes32",
          "name": "_dataHash",
          "type": "bytes32"
        }
      ],
      "name": "getEvent",
      "outputs": [
        {
          "components": [
            {
              "internalType": "bytes32",
              "name": "dataHash",
              "type": "bytes32"
            },
            {
              "internalType": "address",
              "name": "animalOwner",
              "type": "address"
            },
            {
              "internalType": "uint256",
              "name": "timestamp",
              "type": "uint256"
            },
            {
              "internalType": "uint256",
              "name": "updatedAt",
              "type": "uint256"
            },
            {
              "internalType": "string",
              "name": "ipfsUri",
              "type": "string"
            }
          ],
          "internalType": "struct VeterinaryHealthEvents.HealthEvent",
          "name": "",
          "type": "tuple"
        }
      ],
      "stateMutability": "view",
      "type": "function"
    },
    {
      "inputs": [
        {
          "internalType": "address",
          "name": "account",
          "type": "address"
        },
        {
          "internalType": "bool",
          "name": "canRead",
          "type": "bool"
        },
        {
          "internalType": "bool",
          "name": "canWrite",
          "type": "bool"
        }
      ],
      "name": "grantPermissions",
      "outputs": [],
      "stateMutability": "nonpayable",
      "type": "function"
    },
    {
      "inputs": [
        {
          "internalType": "address",
          "name": "account",
          "type": "address"
        }
      ],
      "name": "hasReadAccess",
      "outputs": [
        {
          "internalType": "bool",
          "name": "",
          "type": "bool"
        }
      ],
      "stateMutability": "view",
      "type": "function"
    },
    {
      "inputs": [
        {
          "internalType": "address",
          "name": "account",
          "type": "address"
        }
      ],
      "name": "hasWriteAccess",
      "outputs": [
        {
          "internalType": "bool",
          "name": "",
          "type": "bool"
        }
      ],
      "stateMutability": "view",
      "type": "function"
    },
    {
      "inputs": [],
      "name": "owner",
      "outputs": [
        {
          "internalType": "address",
          "name": "",
          "type": "address"
        }
      ],
      "stateMutability": "view",
      "type": "function"
    },
    {
      "inputs": [
        {
          "internalType": "bytes32",
          "name": "_dataHash",
          "type": "bytes32"
        },
        {
          "internalType": "string",
          "name": "_ipfsUri",
          "type": "string"
        }
      ],
      "name": "recordEvent",
      "outputs": [],
      "stateMutability": "nonpayable",
      "type": "function"
    },
    {
      "inputs": [
        {
          "internalType": "address",
          "name": "account",
          "type": "address"
        }
      ],
      "name": "revokePermissions",
      "outputs": [],
      "stateMutability": "nonpayable",
      "type": "function"
    },
    {
      "inputs": [
        {
          "internalType": "bytes32",
          "name": "_dataHash",
          "type": "bytes32"
        },
        {
          "internalType": "string",
          "name": "_ipfsUri",
          "type": "string"
        }
      ],
      "name": "updateEvent",
      "outputs": [],
      "stateMutability": "nonpayable",
      "type": "function"
    },
    {
      "inputs": [
        {
          "internalType": "bytes32",
          "name": "_dataHash",
          "type": "bytes32"
        }
      ],
      "name": "verifyEventExists",
      "outputs": [
        {
          "internalType": "bool",
          "name": "",
          "type": "bool"
        }
      ],
      "stateMutability": "view",
      "type": "function"
    }
  ],
  "bytecode": "0x608060405234801561000f575f80fd5b503360025f6101000a81548173ffffffffffffffffffffffffffffffffffffffff021916908373ffffffffffffffffffffffffffffffffffffffff1602179055506118418061005d5f395ff3fe608060405234801561000f575f80fd5b5060043610610091575f3560e01c80638c172fa2116100645780638c172fa21461012d5780638da5cb5b1461015d578063a8b231091461017b578063bc9a154b14610197578063f7c1ec9f146101b357610091565b806331448049146100955780633ebc97a1146100c55780635fcbd2fd146100e15780636756ac11146100fd575b5f80fd5b6100af60048036038101906100aa9190610d20565b6101e3565b6040516100bc9190610d65565b60405180910390f35b6100df60048036038101906100da9190610dd8565b61024b565b005b6100fb60048036038101906100f69190610e2d565b610400565b005b61011760048036038101906101129190610dd8565b6105e7565b6040516101249190610d65565b60405180910390f35b61014760048036038101906101429190610d20565b6106e6565b6040516101549190610fb0565b60405180910390f35b61016561085a565b6040516101729190610fdf565b60405180910390f35b61019560048036038101906101909190611059565b61087f565b005b6101b160048036038101906101ac9190611059565b610ac4565b005b6101cd60048036038101906101c89190610dd8565b610bf5565b6040516101da9190610d65565b60405180910390f35b5f6101ed336105e7565b61022c576040517f08c379a000000000000000000000000000000000000000000000000000000000815260040161022390611110565b60405180910390fd5b5f801b5f808481526020019081526020015f205f015414159050919050565b60025f9054906101000a900473ffffffffffffffffffffffffffffffffffffffff1673ffffffffffffffffffffffffffffffffffffffff163373ffffffffffffffffffffffffffffffffffffffff16146102da576040517f08c379a00000000000000000000000000000000000000000000000000000000081526004016102d190611178565b60405180910390fd5b5f73ffffffffffffffffffffffffffffffffffffffff168173ffffffffffffffffffffffffffffffffffffffff1603610348576040517f08c379a000000000000000000000000000000000000000000000000000000000815260040161033f906111e0565b60405180910390fd5b60015f8273ffffffffffffffffffffffffffffffffffffffff1673ffffffffffffffffffffffffffffffffffffffff1681526020019081526020015f205f8082015f6101000a81549060ff02191690555f820160016101000a81549060ff021916905550508073ffffffffffffffffffffffffffffffffffffffff167f29232c12d50e51c1c01087f3a3c91775a1c2714280133a72a545886c7e8345ac5f806040516103f59291906111fe565b60405180910390a250565b60025f9054906101000a900473ffffffffffffffffffffffffffffffffffffffff1673ffffffffffffffffffffffffffffffffffffffff163373ffffffffffffffffffffffffffffffffffffffff161461048f576040517f08c379a000000000000000000000000000000000000000000000000000000000815260040161048690611178565b60405180910390fd5b5f73ffffffffffffffffffffffffffffffffffffffff168373ffffffffffffffffffffffffffffffffffffffff16036104fd576040517f08c379a00000000000000000000000000000000000000000000000000000000081526004016104f4906111e0565b60405180910390fd5b6040518060400160405280831515815260200182151581525060015f8573ffffffffffffffffffffffffffffffffffffffff1673ffffffffffffffffffffffffffffffffffffffff1681526020019081526020015f205f820151815f015f6101000a81548160ff0219169083151502179055506020820151815f0160016101000a81548160ff0219169083151502179055509050508273ffffffffffffffffffffffffffffffffffffffff167f29232c12d50e51c1c01087f3a3c91775a1c2714280133a72a545886c7e8345ac83836040516105da9291906111fe565b60405180910390a2505050565b5f60025f9054906101000a900473ffffffffffffffffffffffffffffffffffffffff1673ffffffffffffffffffffffffffffffffffffffff168273ffffffffffffffffffffffffffffffffffffffff16148061068b575060015f8373ffffffffffffffffffffffffffffffffffffffff1673ffffffffffffffffffffffffffffffffffffffff1681526020019081526020015f205f015f9054906101000a900460ff165b806106df575060015f8373ffffffffffffffffffffffffffffffffffffffff1673ffffffffffffffffffffffffffffffffffffffff1681526020019081526020015f205f0160019054906101000a900460ff165b9050919050565b6106ee610ca1565b6106f7336105e7565b610736576040517f08c379a000000000000000000000000000000000000000000000000000000000815260040161072d90611110565b60405180910390fd5b5f808381526020019081526020015f206040518060a00160405290815f8201548152602001600182015f9054906101000a900473ffffffffffffffffffffffffffffffffffffffff1673ffffffffffffffffffffffffffffffffffffffff1673ffffffffffffffffffffffffffffffffffffffff16815260200160028201548152602001600382015481526020016004820180546107d390611252565b80601f01602080910402602001604051908101604052809291908181526020018280546107ff90611252565b801561084a5780601f106108215761010080835404028352916020019161084a565b820191905f5260205f20905b81548152906001019060200180831161082d57829003601f168201915b5050505050815250509050919050565b60025f9054906101000a900473ffffffffffffffffffffffffffffffffffffffff1681565b61088833610bf5565b6108c7576040517f08c379a00000000000000000000000000000000000000000000000000000000081526004016108be906112cc565b60405180910390fd5b5f801b830361090b576040517f08c379a000000000000000000000000000000000000000000000000000000000815260040161090290611334565b60405180910390fd5b5f801b5f808581526020019081526020015f205f015414610961576040517f08c379a00000000000000000000000000000000000000000000000000000000081526004016109589061139c565b60405180910390fd5b6040518060a001604052808481526020013373ffffffffffffffffffffffffffffffffffffffff16815260200142815260200142815260200183838080601f0160208091040260200160405190810160405280939291908181526020018383808284375f81840152601f19601f820116905080830192505050505050508152505f808581526020019081526020015f205f820151815f01556020820151816001015f6101000a81548173ffffffffffffffffffffffffffffffffffffffff021916908373ffffffffffffffffffffffffffffffffffffffff16021790555060408201518160020155606082015181600301556080820151816004019081610a689190611584565b509050503373ffffffffffffffffffffffffffffffffffffffff16837fdbc38f5cd08af1b4d1eed4b60b1653396e34e9b339b31c4710105253ad3b32e4428585604051610ab79392919061169c565b60405180910390a3505050565b610acd33610bf5565b610b0c576040517f08c379a0000000000000000000000000000000000000000000000000000000008152600401610b03906112cc565b60405180910390fd5b5f801b5f808581526020019081526020015f205f015403610b62576040517f08c379a0000000000000000000000000000000000000000000000000000000008152600401610b5990611716565b60405180910390fd5b81815f808681526020019081526020015f206004019182610b8492919061173e565b50425f808581526020019081526020015f20600301819055503373ffffffffffffffffffffffffffffffffffffffff16837ff54659a3c34a2524739414dd4b95b0dcc9fe627d1ef7eb881719a83863033100428585604051610be89392919061169c565b60405180910390a3505050565b5f60025f9054906101000a900473ffffffffffffffffffffffffffffffffffffffff1673ffffffffffffffffffffffffffffffffffffffff168273ffffffffffffffffffffffffffffffffffffffff161480610c9a575060015f8373ffffffffffffffffffffffffffffffffffffffff1673ffffffffffffffffffffffffffffffffffffffff1681526020019081526020015f205f0160019054906101000a900460ff165b9050919050565b6040518060a001604052805f80191681526020015f73ffffffffffffffffffffffffffffffffffffffff1681526020015f81526020015f8152602001606081525090565b5f80fd5b5f80fd5b5f819050919050565b610cff81610ced565b8114610d09575f80fd5b50565b5f81359050610d1a81610cf6565b92915050565b5f60208284031215610d3557610d34610ce5565b5b5f610d4284828501610d0c565b91505092915050565b5f8115159050919050565b610d5f81610d4b565b82525050565b5f602082019050610d785f830184610d56565b92915050565b5f73ffffffffffffffffffffffffffffffffffffffff82169050919050565b5f610da782610d7e565b9050919050565b610db781610d9d565b8114610dc1575f80fd5b50565b5f81359050610dd281610dae565b92915050565b5f60208284031215610ded57610dec610ce5565b5b5f610dfa84828501610dc4565b91505092915050565b610e0c81610d4b565b8114610e16575f80fd5b50565b5f81359050610e2781610e03565b92915050565b5f805f60608486031215610e4457610e43610ce5565b5b5f610e5186828701610dc4565b9350506020610e6286828701610e19565b9250506040610e7386828701610e19565b9150509250925092565b610e8681610ced565b82525050565b610e9581610d9d565b82525050565b5f819050919050565b610ead81610e9b565b82525050565b5f81519050919050565b5f82825260208201905092915050565b5f5b83811015610eea578082015181840152602081019050610ecf565b5f8484015250505050565b5f601f19601f8301169050919050565b5f610f0f82610eb3565b610f198185610ebd565b9350610f29818560208601610ecd565b610f3281610ef5565b840191505092915050565b5f60a083015f830151610f525f860182610e7d565b506020830151610f656020860182610e8c565b506040830151610f786040860182610ea4565b506060830151610f8b6060860182610ea4565b5060808301518482036080860152610fa38282610f05565b9150508091505092915050565b5f6020820190508181035f830152610fc88184610f3d565b905092915050565b610fd981610d9d565b82525050565b5f602082019050610ff25f830184610fd0565b92915050565b5f80fd5b5f80fd5b5f80fd5b5f8083601f84011261101957611018610ff8565b5b8235905067ffffffffffffffff81111561103657611035610ffc565b5b60208301915083600182028301111561105257611051611000565b5b9250929050565b5f805f604084860312156110705761106f610ce5565b5b5f61107d86828701610d0c565b935050602084013567ffffffffffffffff81111561109e5761109d610ce9565b5b6110aa86828701611004565b92509250509250925092565b5f82825260208201905092915050565b7f52656164206163636573732064656e69656400000000000000000000000000005f82015250565b5f6110fa6012836110b6565b9150611105826110c6565b602082019050919050565b5f6020820190508181035f830152611127816110ee565b9050919050565b7f4f6e6c79206f776e6572000000000000000000000000000000000000000000005f82015250565b5f611162600a836110b6565b915061116d8261112e565b602082019050919050565b5f6020820190508181035f83015261118f81611156565b9050919050565b7f496e76616c6964206163636f756e7400000000000000000000000000000000005f82015250565b5f6111ca600f836110b6565b91506111d582611196565b602082019050919050565b5f6020820190508181035f8301526111f7816111be565b9050919050565b5f6040820190506112115f830185610d56565b61121e6020830184610d56565b9392505050565b7f4e487b71000000000000000000000000000000000000000000000000000000005f52602260045260245ffd5b5f600282049050600182168061126957607f821691505b60208210810361127c5761127b611225565b5b50919050565b7f5772697465206163636573732064656e696564000000000000000000000000005f82015250565b5f6112b66013836110b6565b91506112c182611282565b602082019050919050565b5f6020820190508181035f8301526112e3816112aa565b9050919050565b7f496e76616c6964206861736800000000000000000000000000000000000000005f82015250565b5f61131e600c836110b6565b9150611329826112ea565b602082019050919050565b5f6020820190508181035f83015261134b81611312565b9050919050565b7f4576656e7420616c7265616479207265636f72646564000000000000000000005f82015250565b5f6113866016836110b6565b915061139182611352565b602082019050919050565b5f6020820190508181035f8301526113b38161137a565b9050919050565b7f4e487b71000000000000000000000000000000000000000000000000000000005f52604160045260245ffd5b5f819050815f5260205f209050919050565b5f6020601f8301049050919050565b5f82821b905092915050565b5f600883026114437fffffffffffffffffffffffffffffffffffffffffffffffffffffffffffffffff82611408565b61144d8683611408565b95508019841693508086168417925050509392505050565b5f819050919050565b5f61148861148361147e84610e9b565b611465565b610e9b565b9050919050565b5f819050919050565b6114a18361146e565b6114b56114ad8261148f565b848454611414565b825550505050565b5f90565b6114c96114bd565b6114d4818484611498565b505050565b5b818110156114f7576114ec5f826114c1565b6001810190506114da565b5050565b601f82111561153c5761150d816113e7565b611516846113f9565b81016020851015611525578190505b611539611531856113f9565b8301826114d9565b50505b505050565b5f82821c905092915050565b5f61155c5f1984600802611541565b1980831691505092915050565b5f611574838361154d565b9150826002028217905092915050565b61158d82610eb3565b67ffffffffffffffff8111156115a6576115a56113ba565b5b6115b08254611252565b6115bb8282856114fb565b5f60209050601f8311600181146115ec575f84156115da578287015190505b6115e48582611569565b86555061164b565b601f1984166115fa866113e7565b5f5b82811015611621578489015182556001820191506020850194506020810190506115fc565b8683101561163e578489015161163a601f89168261154d565b8355505b6001600288020188555050505b505050505050565b61165c81610e9b565b82525050565b828183375f83830152505050565b5f61167b83856110b6565b9350611688838584611662565b61169183610ef5565b840190509392505050565b5f6040820190506116af5f830186611653565b81810360208301526116c2818486611670565b9050949350505050565b7f4576656e74206e6f7420666f756e6400000000000000000000000000000000005f82015250565b5f611700600f836110b6565b915061170b826116cc565b602082019050919050565b5f6020820190508181035f83015261172d816116f4565b9050919050565b5f82905092915050565b6117488383611734565b67ffffffffffffffff811115611761576117606113ba565b5b61176b8254611252565b6117768282856114fb565b5f601f8311600181146117a3575f8415611791578287013590505b61179b8582611569565b865550611802565b601f1984166117b1866113e7565b5f5b828110156117d8578489013582556001820191506020850194506020810190506117b3565b868310156117f557848901356117f1601f89168261154d565b8355505b6001600288020188555050505b5050505050505056fea26469706673582212202d6514bf046e0fe3ea63a0a0e1cda0849622f6f76a7e79c3d5e86bbd9f1ddb3f64736f6c63430008140033",
  "linkReferences": {},
  "deployedLinkReferences": {},
  "immutableReferences": {},
  "inputSourceName": "project/contracts/VeterinaryHealthEvents.sol",
  "buildInfoId": "solc-0_8_20-f11f23d0c387efbd154b0745f62c428054083b37"
}